:020000040800F2
:1000000040720020E50200086B2600089D010008F0
:1000100067260008A5110008BF4D00080000000079
:100020000000000000000000000000001D020008A9
:10003000651400080000000095020008D1020008C5
:10004000294E000895270008FF020008FF0200085B
:10005000151C0008352A00081D1900085B19000846
:10006000651900086F19000879190008AB1100081C
:10007000B3110008B7110008BF110008C111000832
:10008000C5110008E1110008650F0008FF02000813
:10009000FF020008FF020008FF02000883190008A1
:1000A000FF020008FF020008FF020008FF0200082C
:1000B000FF020008FF020008FF0200087D2400087C
:1000C0007B240008812400087F240008C32A00083C
:1000D000C52A0008E12F0008E52F0008FD2F0008C1
:1000E0002719000869140008953200080000000074
:1000F0000000000000000000000000000000000000
:1001000000000000C12A0008FF02000800000000F3
:10011000DD2F0008DF2F00080000000000000000B5
:10012000FD110008FF110008011200080312000869
:1001300000000000000000000000000000000000BF
:1001400000000000000000000000000085320008F0
:100150000000000000000000FF020008FF0200088D
:10016000FF0200080000000000000000FF0200087D
:10017000DFF824D000F01EFDAFF3008002F0C4FAD7
:100180000AF0EEFF002103480BF006F90AF0FAFF2F
:10019000FEE7000028320108407200201EF0040F24
:1001A0000CBFEFF30880EFF309804FF0000108F077
:1001B000ADBD000080F309887047EFF309807047F8
:1001C000684680F3098804480078C00714BF0220FD
:1001D000032080F31488704714320108DFF818C038
:1001E000EFF305831B0618BF6047EFF31483DB07AB
:1001F00008BF604700DF7047C1E00008DFF818C0A3
:10020000EFF305831B0618BF6047EFF31483DB078A
:1002100008BF604700DF704741E30008EFF3098043
:10022000816911F8021CF1B990E80F10E047EFF373
:10023000098C8CE80700144B93E8060091420FD01C
:1002400039B12CE9F00FC1F828C00CB40EF036FC1F
:100250000CBC1A60D2F828C0BCE8F00F8CF30988F7
:100260006FF0020E704710B5084A1268914209D823
:10027000074C54F8214090E80F10A047EFF3098C89
:100280008CE80F0010BD000010090020600F00086E
:10029000600F00080EF0F6FA0C4B93E8060091424E
:1002A00010D0EFF3098C2CE9F00FC1F828C00CB482
:1002B0000EF004FC0CBC1A60D2F828C0BCE8F00FA9
:1002C0008CF309886FF0020E7047000010090020BF
:1002D0000EF0AEFCE0E700000BF08EFA0EF0A8FC8A
:1002E000DAE700000648804706480047FEE7FEE7D9
:1002F000FEE7FEE7FEE7FEE7FEE7FEE7FEE7FEE7D6
:10030000DD2C0008710100082DE9F05F0546002092
:1003100092469B4688460646814640241BE0284676
:1003200041464746224600F06BFB53465A46C01AE8
:10033000914110D311461846224600F016F82D1AA6
:1003400067EB01084F4622460120002100F00DF81E
:1003500017EB00094E41201EA4F10104DFDC4846E2
:1003600031462A464346BDE8F09F202A04DB203A66
:1003700000FA02F1002070479140C2F1200320FAF8
:1003800003F319439040704700487047D86F010845
:1003900010B50446FFF7F8FF0068005D00F00100AB
:1003A00010BD10B5431A934209D28318881803E090
:1003B00010F8011D03F8011D521EF9D210BD40EACC
:1003C00001039B0703D009E008C9121F08C0042AD3
:1003D000FAD203E011F8013B00F8013B521EF9D2BA
:1003E00010BDD2B201E000F8012B491EFBD27047CC
:1003F0000022F6E710B513460A4604461946FFF7F1
:10040000F0FF204610BD421E12F8013F002BFBD129
:1004100011F8013B02F8013B002BF9D1704730B5D0
:1004200005462A460B4612F8010B13F8014B08B19A
:10043000A042F8D01CB1002802D06D1CF1E728467C
:1004400030BD10B5044604E00B7800F8013B03B161
:10045000491C521EF8D2204610BD421C10F8011B48
:100460000029FBD1801A704710B5002200E0521C11
:10047000835C8C5CA34201D1002BF8D1D8B2E1B2ED
:10048000401A10BDCBB203E00178994203D0401C62
:10049000521EF9D20020704730B5044600200346B2
:1004A00000E05B1C934203D2E05CCD5C401BF8D0C3
:1004B00030BD034611F8012B00F8012B002AF9D1B9
:1004C000184670470FB400B58DB010A909900B9075
:1004D00000914FF0FF300A9000200C9005480690E4
:1004E000054807906A4609A80F9900F0BFFA0DB0B9
:1004F0005DF814FB890A0008A70A00082DE9FF5FD0
:100500001D464FF0FF3BD5E9014691465F464FF04F
:100510000008A9697F1C01988847296A8246884794
:100520000028F6D1BAF1FF3F0CD024F4C064002EAD
:1005300019DD600614D5BAF12B0F09D0BAF12D0FD1
:100540000ED103E0584604B0BDE8F09F44F4806447
:10055000A9697F1C01988847761E8246002E02DD1D
:10056000BAF1300F03D0B9F1000F26D032E0A969FB
:10057000761E44F400747F1C019888478246002E42
:1005800005DDBAF1780F06D0BAF1580F03D0B9F1F2
:10059000000F10D01EE0B9F1000F02D0B9F1100F1A
:1005A00018D1A969761E24F400747F1C019888472D
:1005B0008246102002E0082000E00A20814609E07F
:1005C00008FB0908A969761E44F400747F1C019891
:1005D00088478246002E05DD4946504600F032FA33
:1005E0000028EDDAE96901988847A00502D46FF088
:1005F0000100A8E7E00725D1600613D5600502D504
:10060000C8F1000000E0404629680A1D2A60096818
:10061000220501D5087015E0220701D5088011E0F8
:1006200008600FE02868011D29600068210502D5D7
:1006300080F8008006E0210702D5A0F8008001E0E4
:10064000C0F8008038467EE72DE9FE4F804681EAFB
:100650000300C00F0C46009021F0004123F000453C
:10066000B8EB0200A94105D24046214690461C46FF
:100670000B46024623F00040104347D0270DC7F336
:100680000A00C3F30A510290401A019040286BDA25
:10069000C3F3130040F4801B0098924620B100235E
:1006A000D2EB030A63EB0B0B01985946C0F14002F1
:1006B0005046FFF75AFE06460D4650465946019AE7
:1006C00000F0AEF910EB08006141002487EA1152F6
:1006D00084EAE7731A4340D0009A62B3019A012A70
:1006E0004FEA075215DC001B61EB02014FF000429C
:1006F00002EA0752CDE90042001C41F58011324662
:100700002B4600F0F0F903B0BDE8F08F40462146DB
:10071000F9E7001B61EB0201001C41F58013001892
:100720005B412018A2F5001747EB030140EAD570A2
:10073000B6196D4111E06D084FEA360645EAC075FD
:100740004FEA0752001B61EB0201001C41F58011CA
:1007500049084FEA30000019514132462B4603B098
:10076000BDE8F04F00F0B0B900980122400000232E
:10077000D0EB020263EBE073009821464FEAE0748D
:10078000B8EB000061EB0401E9E783F000435BE7AD
:1007900081F0004158E72DE9FE4F81EA030404F09F
:1007A000004421F0004100944FF0000B23F000437F
:1007B00050EA01045ED052EA03045BD0C3F30A544A
:1007C000C1F30A552C44A4F2F3340194A0FB025463
:1007D000C1F3130141F48011C3F3130343F48013F5
:1007E00001FB024400FB034E840A970A44EA815449
:1007F00047EA8357A4FB076802958D0A05FB078526
:100800004FEA932C04FB0C542705029D4FEA06582F
:1008100047EA1637B5EB08056EEB070C870E920E0C
:1008200047EA811742EA8312A7FB0201B6EB0B01EC
:1008300064EB00042B0D43EA0C335E1844EB1C50B0
:10084000DA465146E7FB0201C5F313044FEA0B33C6
:1008500043EA14534FEA0432019C43EA0603A4F12D
:100860000C040294009CCDE900B400F03CF903B004
:10087000BDE8F08F00200146F9E72DE9F04D81EA4F
:10088000030404F0004B21F0004514464FF0000A29
:1008900023F0004150EA050220D054EA01021DD0A5
:1008A000C5F30A570246C5F31303C1F31300C1F39E
:1008B0000A5640F4801543F48013A7EB0608101B7A
:1008C000D64608F2FD3873EB050002D308F10108A3
:1008D00001E092185B41B8F1000F03DA00200146F5
:1008E000BDE8F08D00204FF48011064684460EE0EE
:1008F000171B73EB050705D3121B63EB05030643B8
:100900004CEA010C49084FEA300092185B4150EA6A
:100910000107EDD152EA030012D082EA040083EA13
:100920000501084305D0101BAB4106D2012200236C
:1009300006E000224FF0004302E06FF00102531086
:100940001AEB06004CEB085110EB0A0041EB0B01CF
:10095000BDE8F04D00F0B8B80EB540F23341029159
:100960000021CDE900110A460B4600F0BCF803B0A7
:1009700000BDC1F30A5210B5C1F3130140F2FF33B9
:1009800041F480119A4201DA002010BD40F2334355
:100990009A42A2F2334203DC524200F031F810BD19
:1009A000904010BD30B5041E71F1000404DB4FF01F
:1009B0000044404264EB0101141E73F1000405DBA6
:1009C0001C464FF00043524263EB0403994208BFB8
:1009D000904230BD30B50B46014600202022012454
:1009E00009E021FA02F59D4205D303FA02F5491BFD
:1009F00004FA02F52844151EA2F10102F1DC30BD13
:100A0000202A04DB203A21FA02F00021704721FA63
:100A100002F3D040C2F120029140084319467047CA
:100A2000202A06DBCB17203A41FA02F043EAE073B2
:100A300006E041FA02F3D040C2F12002914008439F
:100A4000194670473A2800D2303820F02002412A57
:100A500001D3A2F13700884201D34FF0FF30704735
:100A6000026811441378016018467047D160044948
:100A700051610449116200211161114600F0ACB8C6
:100A8000610A000891030008426842B1016811F848
:100A9000013B23B1521EC0E90012184670470121E4
:100AA000C160881E704742685AB1C368016843B983
:100AB00083688B4205D0491E521CC0E900120020F9
:100AC00070474FF0FF30704710B5141E73F10004EB
:100AD00008DA401C41F1000192185B411A4301D130
:100AE00020F0010010BD2DE9F04D92469B4611B15A
:100AF000B1FA81F202E0B0FA80F220329046FFF7BC
:100B000034FC04460F4640EA0A0041EA0B01534612
:100B10005A46084313D0114653EA010019D0C8F1D0
:100B200040025046FFF76CFF05460E4650465946B8
:100B30004246FFF71AFC084305D0012004E0204696
:100B40003946BDE8F08D0020054346EAE0762C43A7
:100B500037430A986305E40AA0EB08000022FD0A67
:100B600044EA47540A3002D500200146E9E701056E
:100B700010196941DDE9084500196941BDE8F04DEA
:100B8000A2E7C1F30A52C1F3130140F2FF3341F46B
:100B900080119A4202DA00200146704740F2334346
:100BA0009A42A2F2334202DC5242FFF729BFFFF71A
:100BB000DCBB0000064C074D06E0E06840F0010396
:100BC00094E8070098471034AC42F6D3FFF7D4FA04
:100BD000F8780108187901082DE9F34F8BB04FF030
:100BE000000801F10C000C464FF0010B46460DF1D8
:100BF000080A01906269012101989047051E2DD0D5
:100C0000252D2CD0216A8847C0B162690121019845
:100C10009047216A88470028F7D1411E62690198F0
:100C2000904700E0761CA1690B988847216A8847A5
:100C30000028F7D1E1690B988847DBE7A1690B9899
:100C400088470746A84201D1761CD3E7E1690B9893
:100C500088477F1C02D1B8F1000F6FD047E1002711
:100C600062693D463946019890472A2804D1626955
:100C70000121019890470125DFF8889262690121DE
:100C800001989047A0F130010A290AD24F45E5DCCE
:100C900007EB870100EB4107303FDFD445F010053B
:100CA000ECE7E90601D46FF000476C280AD04C2825
:100CB00014D0682815D06A280DD074281CD07A2842
:100CC0001AD01DE062690121019890476C2802D07A
:100CD00045F0040514E045F002050DE045F020055F
:100CE0000AE06269012101989047682802D045F026
:100CF000080505E045F40065626901210198904707
:100D0000C4E9015765283DD019DC58287AD00CDC9D
:100D1000452837D004DC252826D0412831D131E0C0
:100D200046282FD047282CD12CE05B2877D061288B
:100D300028D063287CD0642823D15AE0D1E06F28E2
:100D400048D008DC66281DD067281BD0692821D030
:100D50006E2816D127E0702845D0732868D07528F2
:100D600047D078280DD14DE0A1690B9888470546FA
:100D700025283FF469AFE1690B9888476D1C3FF463
:100D80006AAFB4E023466A466FF001000B99AFF3F7
:100D900000809FE045F040006060A80723464FF0C8
:100DA000000236D43EE0E8077FF447AF2068011D1B
:100DB00021600068290501D506701BE7290701D5C8
:100DC000068017E7A90703D5F117C0E9006111E70D
:100DD00006600FE745F040006060A80723464FF02B
:100DE000080216D41EE040F60E0125EA01006060FC
:100DF00016E045F040006060A80723464FF00A0265
:100E000007D40FE045F040006060A80708D52346EE
:100E100010226FF001000B99AFF300805AE007E059
:100E2000234610226FF001000B99FFF767FB51E09A
:100E30004FF000094F464B46632802D05B2807D08D
:100E400041E02079C00601D40120A06001273AE0EA
:100E500062690121019890475E2805D14FF0010990
:100E60006269494601989047216939B900210A46CB
:100E7000534643F82120491C0829FADBB0B3216905
:100E800069B9C11700EBD16253110AEB830122F05B
:100E90001F02821A01200B68904003430B606269B5
:100EA0000121019890475D28E8D1B9F1000F09D0E0
:100EB0000020514651F82020D24341F82020401C08
:100EC0000828F7DB02AB224600976FF001000B9970
:100ED000AFF3008000280CDA401C08D1BBF1000FF2
:100EE00005D04FF0FF300DB0BDE8F08FFFE7404672
:100EF000F9E7E90701D108F1010806444FF0000BBA
:100F000078E60000CCCCCC0C70B58C1810F8015BE6
:100F100015F0070301D110F8013B2A1106D110F892
:100F2000012B03E010F8016B01F8016B5B1EF9D196
:100F30002B0705D40023521E0DD401F8013BFAE71C
:100F400010F8013BCB1A921C03E013F8015B01F887
:100F5000015B521EF9D5A142D8D3002070BD00001C
:100F60000000000070470029816802D041F00101B3
:100F700001E021F00101816070470146002089688D
:100F8000490700D501207047C06C80B27047024607
:100F9000002012680A4200D001207047014600205C
:100FA0008968090700D501207047000010B5426824
:100FB0000E4B0C791A400B6842EA0422134343603B
:100FC00082680B4B1A40D1E9024323434C7942EA31
:100FD000440213438360C26A097C22F47002491EF2
:100FE000C9B242EA0151C16210BD0000FFFEF0FF2C
:100FF000FDF7F1FD70B5072609290AD9C568A1F1E9
:101000000A0404EB4404A640B543A3401D43C56055
:1010100007E0056901EB4104A640B543A3401D4329
:1010200005611F23072A09D2446B521E02EB82027C
:1010300093409C4391400C43446370BD0D2A09D2F8
:10104000046BD21F02EB820293409C4391400C43FD
:10105000046370BDC46A0D3A02EB820293409C4364
:1010600091400C43C46270BD816841F00801816009
:1010700070470029816802D041F4A00101E021F409
:10108000A00181607047816841F004018160704770
:1010900000210160017141718160C1600121017411
:1010A00070470000024801214171817170470000C2
:1010B000685E002010B500BF012140F2BD2001F0A4
:1010C000C5FB0121054801F0B5FB00BF00F008F8A1
:1010D0000121480600F0E0FF10BD000000080010EC
:1010E00008B502208DF8020010208DF80300402082
:1010F000ADF800006946264800F02EFF0120254982
:101100000866254908608020ADF80000694620483F
:1011100000F022FF01201F490867C1F89C0100026E
:10112000ADF8000069461A4800F016FF0120194981
:10113000803108601749C1F8A001C003ADF8000074
:101140006946164800F008FF012015490860144957
:10115000F039C1F8BC018002ADF8000069460C48C6
:1011600000F0FAFE01200B49A03108600949C1F8DE
:10117000A801C002ADF800006946054800F0ECFE89
:1011800001200449B03108600249C1F8AC0108BD32
:101190000010014000002242980122420008014054
:1011A000F000214200BFFEE7704710B5FFF7FCFFDB
:1011B00010BD7047704710B5FFF7FCFF10BD7047BA
:1011C0007047000010B50548006830B14FF40002C8
:1011D00091100248006800F0E5F810BD18000020EA
:1011E00010B50548006830B14FF000629110024818
:1011F000006800F00DF910BD18000020704770471E
:10120000704770470029016802D041F0010102E0F7
:101210004FF6FE721140016070470000C10002D518
:101220000249086070470249486070470404024060
:10123000000002400021016041608160C1600161E5
:1012400041618161C16101624162816270474068B0
:1012500080B2704702460020D10001D5034900E06A
:1012600003490968114200D0012070470004024080
:1012700000000240002A026801D00A4300E08A43CD
:101280000260704730B5026847F6F0739A430C6A03
:101290008B682343D1E904452C4323438C692343C2
:1012A000CC6923434C6A23438C6A23431343036072
:1012B000CA6842600A6882604968C16030BD000047
:1012C00001684FF6FE72114001600021016041602B
:1012D0008160C1603149314A0839904203D1486880
:1012E00040F00F0006E02D4A1432904204D14868C5
:1012F00040F0F00048607047284A2832904203D1FD
:10130000486840F47060F5E7244A3C32904203D1CB
:10131000486840F47040EDE7204A5032904203D1D3
:10132000486840F47020E5E71C4A6432904203D1DB
:10133000486840F47000DDE7184A7832904203D1E3
:10134000486840F07060D5E7154A111F904203D1FC
:10135000086840F00F0006E0114A1432904204D1B0
:10136000086840F0F000086070470D4A283290424B
:1013700003D1086840F47060F5E7094A3C329042B6
:1013800003D1086840F47040EDE7054A50329042BE
:10139000EAD1086840F47020E5E700000800024048
:1013A0000804024070B504460D4616462846FFF76D
:1013B00051FF20B1022060702846FFF72FFF304612
:1013C000FFF748FF20B1042060703046FFF726FF8A
:1013D00000224021606801F01CFE00220A21A06862
:1013E000FFF748FF0021A068FFF70CFF002240F242
:1013F0002441606801F01CFE002240F22551606823
:1014000001F016FEA06A10B1A16A206A884770BD7B
:1014100070B504460D4616462846FFF71BFF20B15F
:101420000220A0702846FFF7F9FE3046FFF712FFB2
:1014300020B10420A0703046FFF7F0FE002280218A
:10144000606801F0E6FD00220A21E068FFF712FF64
:101450000021E068FFF7D6FEE06A10B1E16A206A79
:10146000884770BD7047000010B54FF48054204687
:1014700000F010F928B1204600F098F80449012046
:101480000870BDE810404FF4003000F08DBA000045
:10149000C408002038B50022124C0092CA222260F3
:1014A000532222600F4A1C3A0029116802D00143DE
:1014B000116012E0814311600A4A183A95131168CD
:1014C000009B01EA10215B1C0093AB4201D0002974
:1014D000F5D0116811EA102000D00120FF21216011
:1014E00038BD00002428004030B587B004A800F0C3
:1014F0002FFB4FF40034204600F056FA04940024E9
:101500008DF8144008208DF8150001258DF816502F
:1015100004A800F0D3FA29208DF818008DF819409E
:101520008DF81A408DF81B5006A801F09FF84FF077
:101530008030CDE901048DF800408DF801402C0287
:101540008DF80C508DF802506A462146012000F0BB
:1015500013F90121080300F0BDF801212046FFF72F
:1015600099FF07B030BD010901EB810100F00F00C8
:1015700000EB4100C0B27047002103E0491C0A386B
:10158000C9B2C0B20A28F9D2090740EA116070470F
:1015900080B240F08000C1430348026802F080023C
:1015A00011430160704700000C280040C0F30F1089
:1015B00040F08000C1430348026802F080021143FA
:1015C000016070470C2800401FB50121080701F099
:1015D00031F9012001F0E0F84FF48074204600F06A
:1015E0004BF810B12046FFF7D3FF012001F024FA99
:1015F000612001F007FA0028FAD04FF4007001F0E2
:101600003FF9012001F036F900F058F97F200190F0
:10161000FF20002402900094684600F07BF803A9A4
:101620000120039400F0FAF81FBD000008B50D4931
:10163000002000900868400612D44FF0FF30086088
:101640008B130868009A00F04000521C00929A42E6
:1016500001D00028F5D00868400601D4002008BD5C
:10166000012008BD0C2800400248016821F08001DB
:10167000016070470C2800400449024600200968B8
:10168000034B1940114200D0012070470C28004044
:101690007F7F01000D4A10B5126800210B4B02F04C
:1016A0000402383B1B6802EAD0340340234302EAB9
:1016B00010421343064A126802EA101003D00004D5
:1016C000000C00D00121084610BD00004028004059
:1016D0000C28004030B50E4DCA222A6053222A60E1
:1016E0000B4C0B4B1C3C1C33002920F004022168DE
:1016F00000F0040004D0114321601968014303E0A5
:1017000091432160196881431960FF20286030BD32
:101710002428004070B5124D04460026CA202860D7
:1017200053202860FFF782FFA8B10D481C380168DC
:1017300021F04001016001682268114301600848FE
:10174000A168143801600168A28841EA0241016081
:10175000FFF78AFF0126FF202860304670BD000099
:101760002428004008B5034901EB80000090006880
:1017700008BD00005028004070B514460D46264AAA
:101780000021002810684FEA406005D000281CDACC
:101790002078FFF7E8FE19E0002800DBE1702078F0
:1017A000FFF7EAFE06046078FFF7E6FE46EA002649
:1017B000A078FFF7E1FE0643E07846EA0046207B8A
:1017C000FFF7DAFE46EA006010E0E170207BFFF7E9
:1017D000CAFEA0782178E27840EA014061780902E7
:1017E00041EA02410843217B40EA0160A168CA2224
:1017F00008436168084308491C310A6053220A60A3
:10180000B5F5807F04D00A1F1060FF20086070BD0E
:10181000014A1432F8E70000082800402DE9F041A1
:101820000C460026234F01002078396832464FEAE3
:10183000416104D0002930DAFFF795FE2EE000293F
:1018400000DBE270FFF798FE05046078FFF794FE76
:1018500045EA0025A078FFF78FFE0543E07845EACA
:101860000045144CCA201C34206053202060FFF730
:10187000DDFE68B1104805400E4808380560FFF7E6
:10188000F3FE3868800602D400F018F800B1012693
:10189000FF2020603046BDE8F081E270A07821781A
:1018A00040EA01456078E178000240EA01400543E2
:1018B000D7E70000082800407F7F7F0018B5002090
:1018C000104B0090CA201860532018600D49183939
:1018D000086820F0A00008604FF400340868009AFF
:1018E00000F02000521C0092A24201D00028F5D046
:1018F0000868800601D5012000E00020FF21196062
:1019000018BD00002428004008B5034A02EB8000FF
:101910000090016008BD00005028004010B5012073
:1019200000F042F810BD10B54FF4806000F03CF8B4
:101930004FF4006000F038F84FF4805000F034F8B5
:101940004FF4005000F030F84FF4804000F02CF8D5
:101950004FF4004000F028F810BD10B5022000F050
:1019600023F810BD10B5042000F01EF810BD10B50E
:10197000082000F019F810BD10B5102000F014F880
:1019800010BD10B5202000F00FF8402000F00CF83A
:10199000802000F009F84FF4807000F005F84FF453
:1019A000007000F001F810BD0149086070470000A8
:1019B000140401402DE9FE430121BD2000F046FF43
:1019C00000213C4C01250B46221D605C00EB4000D1
:1019D00002EBC000466835604669356006693360D1
:1019E00080680360491CC9B20429EED3324E00213D
:1019F000705C00EB400002EBC00044682360446967
:101A000023600469256080680560491CC9B20C29FF
:101A1000EED30C208DF808308DF8090001958DF873
:101A20000A5000249046305D00EB400108EBC107EE
:101A3000B978787800F07CFAB87805FA00F001906F
:101A400001A800F03BF8641CE4B20C2CEBD3062098
:101A50008DF800000F208DF801008DF802008DF840
:101A60000350684600F002FE07208DF8000068462B
:101A700000F0FCFD08208DF80000684600F0F6FD3F
:101A800009208DF80000684600F0F0FD0A208DF86E
:101A90000000684600F0EAFD17208DF80000684657
:101AA00000F0E4FD28208DF80000684600F0DEFD1F
:101AB000BDE8FE83A02C0108FC31010830B51A4AAC
:101AC0008379016853B313688B431360111D0B684E
:101AD0000468A3430B60017911440B680468234335
:101AE0000B60114B083319680468A14319601C1D71
:101AF00021680568A94321604179102905D0114466
:101B00000A68006802430A6030BD19680268114320
:101B10001960216800680143216030BD00791044DC
:101B200002688A43026030BD00040140064900207B
:101B30000860091D0860091D0860091D0860024948
:101B4000024814310860704700040140FFFF7F0025
:101B50000021016001710C22427181717047000007
:101B600002494FF0FF3048617047000050090020E3
:101B700070B505461A49042029441A4C8606B1F569
:101B8000904F14D2304600F0CAF804280FD12069D3
:101B900040F0020020616561206940F04000206152
:101BA000304600F0BCF8216921F0020121610E49A4
:101BB0008D4214D8304600F0A1F804280FD12069D6
:101BC00040F0020020616561206940F04000206122
:101BD000304600F093F8216921F00201216170BDC7
:101BE000005400E000200240FFFF070808490420DD
:101BF000CA68D20701D001207047CA68520701D5D0
:101C000002207047C968C906FBD503207047000051
:101C100000200240704700000248016941F0800145
:101C20000161704700200240F0B50E460446174996
:101C300004202144164D4FF47047B1F5904F10D257
:101C4000384600F06CF804280BD1286940F00100F8
:101C500028612680384600F062F8296921F00101E8
:101C600029610C498C4210D8384600F047F8042806
:101C70000BD1286940F0010028612680384600F029
:101C80003DF8296921F001012961F0BD005400E00F
:101C900000200240FFFF070870B503460C461546BA
:101CA00000260D480688B3F1006F04D3B00200F19E
:101CB0000060984202D84FF0FF3070BD002207E06C
:101CC000184600F00BF824F812009B1C501C82B23E
:101CD000AA42F5DB0020F0E7E0F7FF1F0146088885
:101CE0007047000003480249416003494160704762
:101CF0002301674500200240AB89EFCD00B50346C4
:101D0000FFF774FF02E0FFF771FF5B1E012803D0AD
:101D1000002B00D1052000BD002BF4D1FAE700B55F
:101D20000346FFF763FF02E0FFF760FF5B1E012839
:101D300003D0002B00D1052000BD002BF4D1FAE721
:101D40002DE9F74F82B0804617464FF4806400209B
:101D500001904B4800880190B8F1006F05D30198BD
:101D6000800200F10060404504D84FF0FF3005B01C
:101D7000BDE8F08F0198FF2801DD4FF40064FFF704
:101D8000B1FFA8F1006BBBFBF4F9BBFBF4F004FB63
:101D900010B0C0F34F0A204604EBD071CAEB6101CA
:101DA0008DB2AF4200DC3D4663E004EBD471C1F379
:101DB0004F0209FB04F101F1006032490094096807
:101DC000FFF76AFF00260CE00AEB06002D490968C0
:101DD00031F810004FF6FF71884200D003E0701C0C
:101DE00086B2AE42F0DB00BFAE4222DA09FB04F15C
:101DF00001F10060FFF7BCFE00260AE0039830F80E
:101E0000160006EB0A011F4A126822F81100701C26
:101E100086B2AE42F2DB04EBD471C1F34F0209FB90
:101E200004F101F1006017490094096800F02CF8F2
:101E300004E02A464046039900F026F8AF4200D15C
:101E400018E009F101094FF0000A039800EB450082
:101E5000039008EB4508781B87B204EBD471B7EB0D
:101E6000610F05DD204604EBD071C1F34F0500E0A2
:101E70003D469AE700BFFFF7CFFE002077E700005E
:101E8000E0F7FF1F280000202DE9F04105460E462F
:101E90001746002407E036F814102846FFF7C4FE62
:101EA000AD1C601C84B2BC42F5DBBDE8F0810000D3
:101EB00038B50121BD2000F0C9FC0121880600F0E1
:101EC000EBF84FF6FF74ADF8004000258DF8035095
:101ED0006946124800F040F8ADF800408DF8035014
:101EE00069460F4800F038F8ADF800408DF803500F
:101EF00069460C4800F030F8ADF800408DF803500A
:101F00006946094800F028F8ADF800408DF8035004
:101F10006946064800F020F838BD0000000801407E
:101F2000000C01400010014000140140001C014061
:101F300010B58A0721F003040649120F21440F232C
:101F40008C6893409C438C608B68904003438B600B
:101F500010BD000000000140F0B5CC78002204F074
:101F60000F03E40601D58C7823430C784FF00F0C57
:101F700014F0FF0F4FF0010E1BD005680E880EFA0B
:101F800002F42640A64210D196000CFA06F725EA84
:101F9000070703FA06F5CE783D43282E02D0482ED7
:101FA00002D002E0446100E00461521C082AE5D33B
:101FB00005600A88FF2A1CD94468002202F108063D
:101FC0000EFA06F50E882E40AE420ED196000CFA9F
:101FD00006F7BC4303FA06F7CE783C43282E00D11F
:101FE0004561CE78482E00D10561521C082AE5D300
:101FF0004460F0BDF0B514460F2900D800B9F0BD1B
:1020000084B9022B05D1C56801268E40B543C56051
:1020100008E0032B06D123F00103C56801268E409A
:102020003543C560082901D2024601E00839021D86
:1020300015688F000F26BE40B543156044EA83053E
:102040008E00B54016683543156000BFD7E730B540
:102050000F2920D800281ED06AB901248C40022BF9
:1020600002D0032B03D006E0C568A54302E0C56893
:1020700002232543C560082901D3001D08390468DF
:1020800089000F258D40AC43046042EA83028A40F8
:1020900001680A43026030BD30B54FF00044A042F1
:1020A00071D96FF07F4303EAD01300F07F04200959
:1020B00004F00F04052B01D0850001E04508AD00B8
:1020C000AC40062B14D2DFE803F00305080B0E1119
:1020D000BE4A0DE0BD4A121D0AE0BC4A083207E0C4
:1020E000BA4A0C3204E0B94A103201E0B74A14325D
:1020F00070B1012815D002281CD0032823D0042851
:102100002AD005282CD006282ED0072830D033E03E
:102110001068052B02D020F00F002CE020F0030007
:1021200029E01068052B02D020F0F00023E020F019
:102130000C0020E01068052B02D020F470601AE03B
:1021400020F0300017E01068052B02D020F470401A
:1021500011E020F0C0000EE0106820F470200AE0CA
:10216000106820F4700006E0106820F0706002E053
:10217000106820F070401060012902D110682043DF
:10218000106030BDFFE7914A203AB0F5805F0DD076
:1021900043DC402871D01ADC042807D007DC8C4BC4
:1021A000A0426BD001286AD00228EAD17BE008283F
:1021B00079D0102875D03028E3D1506820F0300055
:1021C00050600129DDD1506840F03000F1E0B0F5F9
:1021D000407F67D011DCC02877D0B0F5807F75D004
:1021E000B0F5007FCDD1506820F4407050600129D7
:1021F000C7D1506840F40070DBE0B0F5006F6FD0DD
:10220000B0F5406FBDD1506820F4406050600129A6
:10221000B7D1506840F44060CBE0B0F5002F42D019
:1022200014DCB0F5803F3ED009DCB0F5804F76D0AD
:10223000B0F5C04F74D0B0F5004FA2D133E0B0F587
:10224000003F30D0B0F5802F9BD12CE0B0F1806FF3
:1022500067D015DCB0F5801F25D0B0F1807F75D038
:10226000B0F1007F8DD1506820F0E060506001290E
:1022700087D1506840F000709BE03CE027E01BE015
:10228000B0F1884F77D0B0F1904F8ED1D06920F067
:102290004060D061012988D1D06940F00060D061F0
:1022A0006FE71EE048E05368834353600129F7D18C
:1022B00051680143516064E750681840506001293B
:1022C000EED1506840F0010073E01EE02AE0506853
:1022D000184050600129E3D1506840F0004068E0A8
:1022E00035E0506820F0300050600129D8D15068A6
:1022F00040F010005DE0506820F0C00050600129FF
:10230000CED1506840F0400053E0506820F0C0004B
:1023100050600129C4D1506840F0C00049E020E07D
:102320002AE03DE0506820F4407050600129B7D1A8
:10233000506840F480703CE0506820F44070506079
:102340000129ADD1506840F4407032E01EE0506881
:1023500020F4406050600129A2D1506840F4006030
:1023600027E0506820F4C0405060012998D150689F
:1023700040F480401DE01EE0506820F4C0405060F2
:1023800001298DD1506840F4C04012E0506820F01F
:10239000E060506001298ED1506840F0807008E004
:1023A000506820F0E0605060012984D1506840F00E
:1023B00080605060E5E6D06920F04060D06101297E
:1023C000F8D1D06940F0806069E70000200001404A
:1023D000FEFFFF7F416170474FF6FF7101800221D0
:1023E00081700421C170704770B504464FF40045F8
:1023F0000323012221460D48FEF7FCFD01210B4875
:10240000FEF737FE00BF02210848FEF7C0FD20B9E5
:10241000281EA5F101018DB2F5D100210348FEF778
:1024200028FE0248FEF7B0FD70BD00000024014008
:102430002DE9F04107460C460025002605E0384608
:10244000FFF7D2FF0544701CC6B2A642F7DBB5FB0E
:10245000F4F080B2BDE8F08110B50A210C20FFF73E
:10246000E7FF044640F239306043840A04EB44003D
:102470004FF6FF7101EA400010BD7047704770478A
:1024800070470904090C08D0C0F30721FF2902D1C5
:10249000C0B2FF2801D00020704701207047090416
:1024A000090C08D0C0F30721FF2902D1C0B2FF28D0
:1024B00001D00020704701207047000002494CF60F
:1024C000CC400860704700000030004001490860BF
:1024D000704700000030004002494AF6AA20086018
:1024E000704700000030004001494860704700001C
:1024F0000030004001498860704700000030004013
:10250000F0B500230A24302537261F4610E0B4EB2F
:10251000107F02D905EB107C01E006EB107C01F87E
:1025200013C001EB430C00015B1C8CF80170DBB2A3
:102530009342ECD3F0BDA838172846D2DFE800F06C
:102540000C0E1012141A1E201C2326292C2F323593
:10255000383B4216183E4000E2207047E9207047A1
:10256000EA207047B5207047B6207047B320704707
:10257000B4207047B7207047CC207047CD207047FB
:1025800040F2831070474FF4C57070474FF4C97024
:1025900070474FF4CA70704740F22120704740F2F4
:1025A000232070474FF40970704740F22520704790
:1025B00040F22620704740F2272070476F20704776
:1025C0007020704740F22A20704700207047A838DA
:1025D000172846D2DFE800F00C0E1012141A1E2045
:1025E0001C2326292C2F3235383B4216183E40003A
:1025F000E2207047E9207047EA207047B520704715
:10260000B6207047B3207047B4207047B72070479A
:10261000CC207047CD20704740F2831070474FF4B4
:10262000C57070474FF4C97070474FF4CA70704757
:1026300040F22120704740F2232070474FF4097088
:10264000704740F22520704740F22620704740F244
:10265000272070476F2070477020704740F22A2073
:1026600070470020704700BFFEE7704730B50F236A
:10267000C27801780125F2B1144A126801F1E02113
:1026800002F4E062C2F5E062120AC2F10404D3402F
:102690004278A24084781C401443220181F800242F
:1026A000007800F01F018D404009800000F1E0201B
:1026B000C0F8005130BD01F01F008540480980007E
:1026C00000F1E020C0F8805130BD00000CED00E0CA
:1026D00070B5012008F020FD094C0A4E0025E56088
:1026E000356065604FF47A7008F016FD35606068FB
:1026F000A06060686421B0FBF1F06560E06070BDCF
:10270000500000200809002070B586B0684600F02F
:10271000BFF81748009C184A046016481749002360
:102720000460B4FBF2F00880B4FBF2F014494843B3
:1027300004EB8010010C0004FDF7E6FD1149088050
:1027400011480068FEF708F905460E462046FEF7D8
:1027500003F92A463346FEF71EF800220B4BFEF71C
:102760008CF8FEF706F90A49401E086006B070BDF5
:1027700000000020D808002040420F00DC080020A4
:10278000F7C2FFFFDE0800202032010880842E41BE
:10279000E00800207047000001490862704700000F
:1027A00000000E420748016841F004010160016821
:1027B00041F0020101600448016841F00401016038
:1027C00030BF70470070004010ED00E00B4B1A68FE
:1027D00022F0030202431A600948026842F0040230
:1027E0000260012907D040BF20BF20BF016821F04F
:1027F00004010160704730BFF8E70000007000403E
:1028000010ED00E0034A5168034B19400143516049
:102810007047000000100240FF3FFFEF044A00290C
:10282000516901D0014300E08143516170470000CC
:1028300000100240044A0029D16901D0014300E0A0
:102840008143D1617047000000100240044A002912
:10285000916901D0014300E081439161704700001C
:10286000001002400248416A41F0807141627047A5
:102870000010024001490860704700003C044242D9
:1028800002490A6A02430A627047000000100240CF
:1028900070B5564B00215A68554C12F00C0203D00B
:1028A000042A01D0082A01D004606CE0DA6A02F040
:1028B0000042B2F1004F09D059684E4A11405A689F
:1028C00011F0C04F02F4803446D04BE0DA6ADC6A83
:1028D00002F0E06204F47F46DC6A04F0F005DC6A92
:1028E000B2F1407F04F0070415D007DC6AB1B2F101
:1028F000807F0CD0B2F1007F12D10AE0B2F1806F7C
:102900000BD0B2F1A06F0BD109E0042108E0062141
:1029100006E0082104E00C2102E0102100E019216A
:10292000062C04D2DFE804F0030507090B0D012291
:1029300008E0022206E0042204E0082202E010225D
:1029400000E02022340A14FB01F12C0914FB02F2EE
:10295000B1FBF2F1284A14E0C1F383420F2A01D0FF
:10296000022200E00122302505EA5165C1F38341CE
:102970000D43511914B15A68920301D51F4A00E062
:102980001B4A5143016059685A68C1F302111C4C3B
:10299000120601D5615C00E000210268CA40426075
:1029A00059685D68C1F301216D0501D5615C00E0E6
:1029B000002122FA01F1816059685D68C1F3C121EB
:1029C000AD0401D5615C00E00021CA40C2605968D5
:1029D0005B68C1F38131DB0001D541F00401084B94
:1029E0000833595CB2FBF1F1016170BD0010024087
:1029F0000024F40000003C6040420F0000127A0006
:102A000008000020034600205909094A01290AD07C
:102A100002290AD0516A03F01F02012393400B429E
:102A200000D0012070471168F5E7116AF3E7000054
:102A30000010024070470000014908607047000024
:102A4000800442420E48016841F001010160416882
:102A50000C4A1140416001680B4A11400160016855
:102A600021F4802101604168064AD243114041604F
:102A70004FF41F018160016B044A114001637047EC
:102A8000001002400000FFE8FFFFF6FE00FFFEFE20
:102A900005490128486D03D020F030004865704793
:102AA00040F03000FAE7000000100240034A51688D
:102AB00021F00C610143516070470000001002409A
:102AC000704770477047000010B501210420FFF7E0
:102AD000BDFE01211020FFF7B9FE00BF00BF00BFFF
:102AE00000BF0A48D0F8242109493AB9D0F80001BA
:102AF00020B10848086000F011F803E006480860BB
:102B000000F056F8BDE81040FFF7FEBD000021427E
:102B1000000000200024F400004495080CB50022B9
:102B2000214800920192016841F4803101604FF424
:102B30004053016801F4003101910099491C009152
:102B4000019911B900999942F3D10168890328D5F7
:102B50000121019115490A6842F010020A600A68D1
:102B600022F007020A600A680A6041684160416811
:102B700021F46051416041684160416821F4E061A5
:102B8000416041684160416821F003014160416852
:102B900041F0010141604168C1F381010129FAD18D
:102BA0000CBD01920CBD000000100240002002404C
:102BB0001CB500212F4C00910191206840F4803019
:102BC00020604FF44052206800F4003001900098DB
:102BD000401C0090019810B900989042F3D12068F1
:102BE000800344D5012001902348016841F0100181
:102BF0000160016821F007010160016841F00401F2
:102C0000016060686060606820F4605060606068C7
:102C100040F400506060606820F4E06060606068CC
:102C200040F48060606060681449084060606068DB
:102C300040F4E8106060206840F0807020602068F8
:102C40008001FCD50120FFF723FF606820F003001E
:102C50006060606840F0020060606068C0F38100FE
:102C60000228FAD1BDE81C400020FFF711BF0191F6
:102C70001CBD00000010024000200240FFFFC01FEA
:102C8000124810B500681249124A431A884217D0F8
:102C900005DC1149401809D080180BD108E09818BC
:102CA00011D0D04206D14FF0046001E04FF4800013
:102CB000FFF7FCFE0121BDE810400803FFF7AEBDA1
:102CC0004FF44000F4E74FF40000F1E7000000206B
:102CD00000D8B80500CA91FE009423FD10B501216B
:102CE0000C072046FFF7A6FD2C4911F8500F40F0C5
:102CF00004020A7000212046FFF79CFD0020FEF729
:102D000031FDA0F54851F23927D008F0B7FE24482C
:102D1000016841F0010101604168224A11404160AF
:102D20000168214A11400160016821F4802101609D
:102D300041681E4A11404160016B1D4A1140016308
:102D40004FF41F018160C16A41F08061C162FFF7E9
:102D5000BBFE18496010086010BD06F0D3F80121D1
:102D60002046FFF767FD0120FFF716FD002108460A
:102D7000FEF7CAFD0020FFF70FFD00212046FFF7F8
:102D800059FD08F073FD0C48006880F308880A4874
:102D90000A49001D006848608047FEE70070004057
:102DA000001002400C00FFE8FFFFF6FEFFFF0017D7
:102DB00000FFFEFE08ED00E000ACFF1F0000002059
:102DC00070B5184C06460020A38DE28D934225D0A5
:102DD00002EB82008A1E14F81050954200DB8D1E13
:102DE00004EB40012A463046491CFDF7DAFA701917
:102DF0000D2101700A214170E18DA81C01EB8101B8
:102E000004EB41020021116051601181218594F889
:102E10002E10491C01F00301E18570BD218D491C74
:102E2000218570BD6C5F00202DE9F0410E460746FC
:102E3000324C322503F0E2FA3148C07800B90A2555
:102E4000208D02280BD330212C48FDF7D1FA06E063
:102E5000012008F061F96D1E2D042D0C07D094F8A7
:102E60002C00E18D401C00F003008842F0D0A08DC2
:102E7000411C01F00302E18D8A4217D0092E00DDCA
:102E8000092600EB8000F2B204F81020A08D39462C
:102E900000EB800004EB4000401CFDF782FAA08D9F
:102EA0006085401C00F00300A08515E0884213D027
:102EB000608D042810D2092E00DD092600EB800069
:102EC000F2B204F81020608D394600EB800004EB6C
:102ED0004000401CFDF765FA0A49012004034873CD
:102EE0002146092004F0FFF8012008F015F92146D9
:102EF000092004F0F8F80020BDE8F0816C5F0020A4
:102F00009C090020685E00202DE9F05F1A4E002524
:102F1000DFF86890DFF868A0DFF868B02F467468C3
:102F200058212046FDF764FA307884F82000C4E97F
:102F300012A95BF8250080468DB9002108F06EF9D2
:102F40000D49A060091F0978617660B1D8F80400C6
:102F5000206109482146083008F01EFA6060A06828
:102F600008B1606800B97F1C6D1C06F10806D6D058
:102F70003846BDE8F09F000078420108912F000814
:102F8000892F0008780900204FF4804108F0ECB93F
:102F90004FF4005108F0E8B970B50F4C0D4D2021E9
:102FA0002046FDF725FA0021284608F037F9A060F1
:102FB00060B10D206076686820612146A5F114009B
:102FC00008F0EAF9606008B1002070BD4FF0FF30F2
:102FD00070BD0000B4420108FC5C002070477047DF
:102FE0007047000010B50448006818B10248006836
:102FF00000F09FF810BD0000180000207047002965
:10300000818902D041F4005101E021F40051818115
:103010007047002A828A01D00A4300E08A438282F4
:1030200070470246002012880A4200D001207047F3
:1030300010B5C1F3421301F01F040121A140012B7F
:1030400007D0022B07D01430002A026805D00A43AB
:1030500004E00C30F8E71030F6E78A43026010BD58
:1030600030B50446008A85B00D464CF6FF71084025
:10307000E98801432182A0894EF6F3110840A9880E
:103080002A8911436A8902431143A181A08A4FF61C
:10309000FF410840A9890143A1826846FFF7F8FB78
:1030A0001948844201D1039800E00298A1890904DB
:1030B00000EBC00101EB0010296801D5490000E0D8
:1030C0008900B0FBF1F06422B0FBF2F109010B09B9
:1030D0006FF018056B4300EB8300A3891D044FF0CC
:1030E000320306D503EBC000B0FBF2F000F007009E
:1030F00005E003EB0010B0FBF2F000F00F00084316
:10310000208105B030BD0000003801408088C0F348
:1031100008007047C1F30801818070474FF41651D1
:10312000016000218180C18001810C224281818166
:1031300070472DE9F041044665682E88E78A06F05D
:10314000200048B34FF6DF702880A06820BB60687D
:10315000FFF7DCFF00F0FF08E08AA18A884205DA69
:10316000E18A481CE082206900F80180E08AA18A97
:10317000884210DB002240F225516068FFF758FFBB
:10318000A06A40B1002240F224416068FFF750FF7E
:10319000A16A206A884700BFA06858B1A068FEF7FE
:1031A00056F8E082E08AA18A884203DCA08AE18A9C
:1031B000401AE08206F4907018B9A068D0B1E08A95
:1031C000C0B14FF6DF6028806078012812D0E08A15
:1031D000B8420FD001206070012240F224416068A3
:1031E000FFF726FFA06828B1002240F22551606851
:1031F000FFF71EFF06F01000E8B14FF6EF702880D1
:10320000002240F224416068FFF712FFE08A50B1CB
:1032100002206070A06A70B1A16A206A88472046C7
:1032200001F011FD07E004206070012240F22551F9
:103230006068FFF7FDFE06F0C00008B34FF63F7070
:103240002880E068E0B9E08BA18B884207DAE38B45
:103250005A1CE283A269D15C6068FFF75BFFE08BD8
:10326000A18B88420CDB0220A070002240F2277163
:103270006068FFF7DDFEE06A10B1E16A206A884706
:10328000BDE8F08110B5024800F00EF910BD000055
:103290006852002010B54FF48020FEF785FB10BD6A
:1032A00010B50B460C0601F07F0202EB820100EB29
:1032B000C10102D501F58E7101E001F55D710A7061
:1032C000DA094A7000F0F6FF002010BD0A4610B57A
:1032D000090602F07F0306D503EB830100EBC10171
:1032E00001F58E7105E002EB820100EBC10101F5F1
:1032F0005D7100248C700B70D2094A7000F0C1FF20
:10330000002010BD10B50A0604D501F07F0101F0C0
:10331000B3F801E001F092F8002010BD70B50D4641
:103320000E0601F07F0404EB840100EBC10102D51D
:1033300001F58E7101E001F55D71ED090C704D70C4
:103340008A60CB7000D0CC80022B01D100220A71A0
:1033500000F06EFF002070BD10B511F07F0404EB8B
:10336000840100EBC101C1F880234FF00002C1E9E4
:10337000E23281F8752381F8744301F55D7103D061
:1033800000F0B2FF002010BD00F057FEFAE7006920
:10339000002261F30A1201681143016070470A4676
:1033A00010B5090602F07F0306D503EB830100EB9D
:1033B000C10101F58E7105E002EB820100EBC10154
:1033C00001F55D7101248C700B70D2094A7000F018
:1033D0007FFE002010BD70B511F07F0404EB840166
:1033E00000EBC1014FF0010581F81D5181F81C412E
:1033F000C1F82821C1F82C2101F58E714FF000028F
:10340000C1E9053203D000F06FFF002070BD00F06D
:1034100014FEFAE770B5044601F092F8012000238B
:1034200084F8120184F814311A46402510E002EBAA
:10343000820104EBC10181F81D0181F81C21A1F872
:10344000222181F81F31C1E94953521CC1F83031A2
:1034500061789142EBD8002010E000EB800104EB92
:10346000C10181F8753381F87403A1F87A0381F8FA
:103470007733C1E9DF53401CC1F88833617881425A
:10348000EBD8204600F094FD204600F057FD0021C7
:10349000204601F0A6F8204600F042FE2046BDE896
:1034A000704000F0C3BF00002DE9F8430646002439
:1034B00001F019F800287DD0304600F09CFD051E73
:1034C00079D096F8121103204FF00008042906D194
:1034D000D6F8181119B186F81201C6F81881280318
:1034E00003D5304601F0E8F90446680303D53046B9
:1034F00001F08CF90443A80702D5F1680220486165
:10350000404F002D16DAB07A28B1D6F80C010168C8
:1035100021F0030101603069416821F0010141603F
:103520003868816930468847F1684FF0004048614B
:1035300044F00104280529D58DF8008096F8120181
:103540008DF80000386841693046884730698068E6
:10355000F2684FF400615161B17AA9B1C00713D08C
:1035600096F8150101280FD19DF8000003280BD112
:10357000D6F80C01016841F001010160D6F80C0198
:10358000016841F00301016044F00104280708D5F7
:103590003868C16830468847F1680820486144F0BF
:1035A0000104E80603D5304601F0C0F90443E804FD
:1035B00006D501E022E022E0304601F0F5F90443AF
:1035C000A80403D5304601F07BF80443E80209D58E
:1035D0003868C16930468847F1684FF48010486107
:1035E00044F00104A80209D53868016A30468847CA
:1035F000F1684FF40010486144F001042046BDE832
:10360000F8830000EC0A002010B50A46024903A026
:1036100000F017FA004810BDCE6800204B657962B3
:103620006F61726400000000014903200870704758
:10363000A00A002070470000122008800048704750
:10364000D46C01080DF09EB87047704710B50DF0AE
:103650003AFB10BD7FB501210420FFF7F7F80121E7
:103660000846FFF7F3F801A8FEF7B6FE4FF4007026
:10367000ADF804000420234C8DF8070001A9204672
:10368000FEF76AFC01A8FEF7A7FE2115ADF80410AD
:1036900048218DF8071001A92046FEF75DFC432064
:1036A0008DF8000001248DF8014003208DF8020000
:1036B0008DF803406846FEF7D9FFA5042846FEF7BB
:1036C00073F900208DF80C0008208DF80D0002958C
:1036D0008DF80E4002A8FEF7F1F92846FEF764F9CE
:1036E0002A208DF800008DF8014005208DF8020099
:1036F0008DF803406846FEF7B9FF2846FEF754F9F7
:103700007FBD00000008014010B50A46024903A031
:1037100000F097F9004810BDCE68002048494420C9
:10372000496E74657266616365000000042008805C
:1037300000487047D06C010810B50A46024903A042
:1037400000F07FF9004810BDCE6800205542455377
:103750005400000010B50A46024903A000F071F9B8
:10376000004810BDCE6800203436000010B51A2085
:1037700008800A480168001D0468001D00680818D8
:1037800009D008220649FEF7BBFE05490422103184
:103790002046FEF7B5FE0248801E10BDE8F7FF1F69
:1037A000060B002010B5D0F8E425526890470020A1
:1037B00010BD10B504468021FFF7F1FD0021204621
:1037C000FFF7EDFD2046BDE8104000F07BBC10B5D2
:1037D000134600240A462146FFF7BEFD204610BDD1
:1037E00010B5134600240A462146FFF7F4FD204693
:1037F00010BD10B5C0F894230323C0F8902380F8BF
:103800001131134600240A462146FFF7A5FD204644
:1038100010BD70B505460024052085F8110123462A
:10382000224621462846FFF797FD284600F04AFC2D
:10383000204670BD10B5C0F83C210223C0F83821E5
:1038400080F81131134600240A462146FFF7C3FDD4
:10385000204610BD70B505460024042085F81101EE
:103860002346224621462846FFF7B5FD284600F0AC
:1038700029FC204670BD000070B5044641B1D4F863
:10388000E40542697AB394F81201032844D045E074
:1038900094F81101002604F58E75022831D1E969EA
:1038A000A868814207D9081AE86182B22046E9680F
:1038B000FFF796FF10E0296AB1FBF0F200FB12124D
:1038C00092B9814210D3686A81420DD2002211461A
:1038D0002046FFF785FF6E6200231A4619462046F0
:1038E000FFF73AFD0DE016E0D4F8E405C16829B110
:1038F00094F81201032801D1204688472046FFF79B
:1039000088FF94F81601012808D10548006821694C
:10391000486084F8166101E020469047002070BDA1
:10392000F00A002010B5044641B1D4F8E4058269DC
:1039300032B394F81201032823D024E094F8111133
:1039400004F55D7003291ED18268C16991420AD9CC
:10395000891AC161914200D311468AB2C1682046DA
:10396000FFF735FF0FE0D4F8E405016929B194F8B9
:103970001201032801D1204688472046FFF76AFF3D
:1039800001E020469047002010BD38B50446C888A5
:10399000ADF8000048880D46010A04294CD2DFE842
:1039A00001F04B020713D4F8EC15A0780A6830E058
:1039B000D4F8E415A0788A6A694690470146022047
:1039C0004870C4F8F01527E0C0B2062834D2DFE80A
:1039D00000F003080D12171CD4F8EC15A0784A6803
:1039E00017E0D4F8EC15A0788A6812E0D4F8EC154A
:1039F000A078CA680DE0D4F8EC15A0780A6908E050
:103A0000D4F8EC15A0784A6903E0D4F8EC15A07856
:103A10008A69694690470146BDF8000000280AD02F
:103A2000EA88002A07D0824200D90246ADF8002079
:103A30002046FFF7FFFE38BD29462046FFF7B9FEB6
:103A400038BD70B5002300281DD00446002502E0D3
:103A50006D1CEDB2641C2678002EF9D1022404EB13
:103A600045041480CC545B1C0322CA5400245B1C04
:103A700006E0CA545B1CDAB28C54521CD3B2401C10
:103A80000278002AF5D170BD2DE9F0411D46174698
:103A900088460446069E00F04CFA04F2E452414681
:103AA00082E8E0002046FFF7B5FCD4F8E80500689E
:103AB000BDE8F041004710B5D0F8E415096A884721
:103AC000002010BD10B5D0F8E415496A88470020E1
:103AD00010BD90F8CC250A7090F8CD254A7090F86A
:103AE000CE2590F8CF3502EB03224A8090F8D025FE
:103AF00090F8D13502EB03228A8090F8D22590F815
:103B0000D33502EB032292B2CA800121C0F84021D2
:103B100080F81111704710B50446D0F8E805006927
:103B20008047032084F81201002010BD10B5002347
:103B3000044640221946FFF7F1FB00234022802172
:103B40002046FFF7EBFB012084F81201D4F8E815BA
:103B5000A07849688847002010BD10B5D0F8E4155A
:103B6000C96901B18847002010BD10B50446D0F8DE
:103B7000E405026820469047D4F8E805806880474D
:103B8000002010BD70B50A461A4D89780446297088
:103B9000012905D894F81201022807D003280CD077
:103BA0002046BDE870401146FFF703BEA1B184F87E
:103BB0001011032084F812010BE091B194F8100168
:103BC000884209D001462046FFF7ECFD297884F8A9
:103BD00010112046FFF7C9FF2046BDE87040FFF7EF
:103BE00039BE022084F8120184F810112046FFF734
:103BF000D9FDF1E7F40A002010B5044648880122F7
:103C000001280FD0022831D1888810F0FF0F2DD164
:103C100021694968000A06281CD2DFE800F01B1B56
:103C20000B0F1317C4F81821D4F8E4058268204656
:103C3000904716E021F0700120310EE021F0700174
:103C400030310AE021F07001403106E021F07001CE
:103C5000503102E021F0700110310548016084F814
:103C600016212046BDE81040FFF7F4BD10BD00004E
:103C7000F00A00201CB504466946FFF72AFF9DF8AC
:103C8000002012F01F010AD001290DD0022910D006
:103C900002F080012046FFF782FB00201CBD694630
:103CA000204600F00BF8F8E76946204600F0FAF8E5
:103CB000F3E76946204600F07DF8EEE72DE9F04194
:103CC0004B780027032201260A2B42D2DFE803F0BB
:103CD0003B544151410805412A27FFF756FE64E055
:103CE00004468888C8B9C888B8B9887800F07F05C4
:103CF00094F81201032810D084F814512946204664
:103D0000FFF745FB2046FFF7A5FD1DB1022084F813
:103D100012014AE084F8126147E0204619E0FFF7FB
:103D200031FF42E0CA88012A13D190F81221022AF9
:103D300002D0032A0DD102E001221D4916E0012222
:103D400000F5887112E090F81231022B04D0032B99
:103D500002D0FFF72EFD28E015490839CE60D0F8D3
:103D6000183103B1CA6012490222091DFFF762FD32
:103D70001BE0FFF741FF18E0044690F8120102280B
:103D800003D0032801D00428C7D1488801280CD1CA
:103D900084F812210020C4F81801D4F8E4058268E0
:103DA000204690472046FFF755FD3846BDE8F08194
:103DB000FC0A002070B50D460446287800260979D3
:103DC000C0F34110012806D0687878B301281ED0CE
:103DD00003283AD106E0D4F8E40529468268204653
:103DE000904732E094F81201022830D0032828D1FD
:103DF000688828B921B1802902D02046FFF7CFFA80
:103E0000D4F8E40529468268204690470FE094F8EC
:103E1000120102281BD0032813D16888A8B931B138
:103E2000802904D02046FFF751FAE9E703E0204655
:103E3000FFF710FD09E094F81201022807D00328CB
:103E40000DD029462046FFF7B4FC304670BD00294E
:103E5000FBD08029F9D02046FFF7A1FAF5E7104AF8
:103E600008064FF000034FF0010508D501F07F0070
:103E700000EB800004EBC00090F81E0105E001EBB0
:103E8000810004EBC00090F8760308B1556000E0B3
:103E9000536003490222091D2046FFF7CBFCD4E7FB
:103EA000F40A002070B5054690F8120100260C4671
:103EB00003280DD1207902280AD8D5F8E4058268B4
:103EC00028469047E08830B92846FFF7C3FC02E057
:103ED0002846FFF76EFC304670BD10B590F8121101
:103EE00080F81311042180F81211D0F8E805C06899
:103EF0008047002010BD10B50446D0F818010028F6
:103F000016D020698068A07A28B1D4F80C01016825
:103F100021F0030101602069416841F00101416025
:103F20000A2000F007F82069416821F00101416092
:103F300010BD704703F0E0BE70470000F8B50446BE
:103F4000C0680026C16841F04001C1603746009654
:103F5000164D0320FFF7F0FFE068006900907F1C1A
:103F6000AF4216D800980028F3DA0099002041F0FB
:103F7000010100910099E2681161E1680A6900920B
:103F8000401CA84202D8009AD207F7D10320FFF7BD
:103F9000D3FF617A4FF4502009B14FF4E810E16883
:103FA00088631420FFF7C6FF3046F8BD400D0300BC
:103FB000C0680022816821F00101816010467047CD
:103FC00010B501690024896883691A68C1F3410149
:103FD00019B1012901D0022902D0D10AC90202E097
:103FE000D10AC902C91C19600069416841F4807195
:103FF0004160204610BDC068416980690840704733
:1040000041543332463431355F3132385F34365FB4
:104010004348494E415F5A4231315F31305F56313A
:104020002E302E315F4E6F762031362032303232D4
:104030002032333A30363A353000F0B54B7800262E
:104040004A69012B17D00B7800EB8304636D1D6860
:104050001B699AB38A684A6162F3060343F400223B
:10406000636D1A61097845F0044200EB8100406DF0
:1040700002603046F0BD83691F681C6932B18D68EB
:10408000AA4208D965F306044D6106E024F07F02D8
:1040900042F4002203E062F3060444F400221A61B1
:1040A00047F004421A604A69002AE2D00A7800699F
:1040B00001219140426B0A434263DAE7FFE70A7A43
:1040C000CAE70000406D01490161704718000860AF
:1040D00002464B780978002002EB8101012B05D0C4
:1040E000496D0A6842F400120A6070478A691168D3
:1040F000002901DA41F0804141F40011116070475C
:104100005A422D31312D41302D34364B45592D3108
:104110002D55422D322D56312E302D33393231006E
:104120002DE9F04104460026D0F80C0135462B4617
:1041300006602069016821F4C0510160E07A01281D
:1041400029D10321204600F0C8F9E06880214162AE
:1041500020202F4660F31F4761F30F07E1688F624D
:1041600007EB174161F30F03E16860F31F43C1F8E8
:10417000043103EB134161F30F03E16860F31F4364
:10418000C1F8083103EB134161F30F0360F31F43E0
:10419000E068C0F80C311021204600F06DF920468F
:1041A00000F04CF9206905612069456121694FF0F3
:1041B000FF3088612069C56100204FF09043FF27E0
:1041C00011E004EB8002D2F818C0DCF800100029DE
:1041D00001DA194600E02946CCF8001091690D611A
:1041E00091698F60401C61788142EAD8002011E01B
:1041F00004EB8002D2F854C0DCF80010002901DA88
:10420000194600E02946CCF80010516D0D61516D42
:104210008F60401C61788142EAD82069016941F4CD
:1042200080710161204600F0E5F83046BDE8F0817C
:10423000F0B506460D7800204F780124AC400346C7
:1042400006EB8502012F18D0526D64F31F431468EA
:1042500025040DD40D8965F30A04CD78897965F3B9
:10426000934461F3995444F0805141F4004111604A
:104270003169CA691A43CA61F0BD926964F30F03D8
:10428000E5E710B503464C780A78002003EB82027C
:10429000012C09D0526D1368C97823F40013032947
:1042A00004D0022902D003E09269F4E743F080537E
:1042B000136010BD70B50B78044600254E780122BE
:1042C0009A40284604EB8301012E09D0496D62F320
:1042D0001F400D602169CA698243CA61284670BDCA
:1042E000896962F30F00F4E7F0B54A780B7800248F
:1042F0000125D1F814C000EB8303012A1BD05E6DA9
:1043000032683669BCF1000F5DD08D680CEB050793
:104310007F1EB7FBF5F767F3DC46C6F3C9476F436B
:1043200067F31206C6F312054D615B6D1E61CB7813
:10433000012B4ED054E09F693A683E69BCF1000FF2
:104340000DD08B686CF312069C44ACF1010CBCFBE5
:10435000F3F363F3DC46CB78012B05D008E06FF371
:10436000120665F3DC4603E026F0C04606F100566F
:104370003E61CB78012B0AD04B697BB10B789D4015
:1043800003695E6B2E435E63CB78012B06D1036914
:104390009B681B0ADB070CD042F080520B7842F07E
:1043A000044200EB83039B691A60CA78012A03D098
:1043B0001DE042F00052F1E78A8A93B20A78C96898
:1043C00000F024F913E08F6867F3120665F3DC460A
:1043D000ABE74B7913B142F0005201E042F080525A
:1043E000097842F0044200EB8100406D02602046F3
:1043F000F0BD000010B5C16800238B61C2686FF08A
:1044000080415161C468CA176260C2685161C26864
:1044100004499161C068044A8169914311438161F3
:10442000184610BD0008008018383C00C068002203
:10443000816841F0010181601046704738B5002461
:10444000024621460094009840F010000090009829
:10445000D36818610748D26813690093491C8142E8
:1044600002D8009BDB06F7D40320FFF765FD20464A
:1044700038BD0000400D030038B500240346224635
:104480000094009840F020000090009861F38A109A
:1044900000900098D96808610748D9680B690093B3
:1044A000521C824202D8009B9B06F7D40320FFF7E0
:1044B00043FD204638BD0000400D030000698068C0
:1044C000C0F3410028B1012801D0022803D0022006
:1044D000704703207047012070470069026861F34C
:1044E000010202607047C068406910F0010F01D0FE
:1044F000002070470120704700698169C069084049
:1045000080B2704700698169C0690840000C70473B
:1045100000EB8101496D8968006940690840704776
:1045200010B504460023D21C9008D4F8D02003E034
:10453000146841F8044B5B1C8342F9D3084610BD54
:1045400070B5012300224024837015468480012920
:104550000BD1C3720821017004214FF0A0424170B9
:104560009115C18002210172837202F50061C0E9D8
:10457000032100210AE002EB411303F5106600EB72
:10458000810403F53063A661491C636543788B425F
:10459000F1D802F5806141614031C0F8CC100021B2
:1045A00008E002EB411300EB810403F5A063491C12
:1045B000C4F8903003788B42F3D8002108E002EB76
:1045C000013300EB810403F58053491CC4F8D0305B
:1045D00003788B42F3D802F56062C0F80C212846BC
:1045E00070BD10B5C3680024D868012920F0C0420E
:1045F00001D019B104E042F0005201E042F08042E3
:10460000DA603220FFF796FC204610BD30B5054633
:10461000002005EB8202DB1C04469B08D2F8D02068
:1046200003E051F8045B1560641C9C42F9D330BD73
:104630002DE9F0470E4601EB860100EBC1048046F0
:10464000D4E94C01401AD4F8241104F58E74814247
:1046500000D20846C01C08EB86098708D9F8180064
:10466000816920E0451AA068A84200D20546E81CEE
:104670008708ABB2F2B24046E168FFF7C7FFE068D7
:104680002844E060A0692844A061D9F8181089691D
:104690006269824207D1207801228240D8F8100056
:1046A000436B9343436388B2B84205D9D4E905010B
:1046B000814201D20028D5D10120BDE8F087000059
:1046C00070B586B00646FFF77BFC6846FEF7E0F85B
:1046D000F068019DC16821F47054C4603046FFF752
:1046E000EDFE002103280DD00120B0704020B080E5
:1046F000344835492844884209D224F4705101F5E0
:10470000605156E0B1704FF40070B0802CE02F483B
:104710002F492844884204D224F4705101F55051A5
:1047200047E02C482C492844884204D224F4705194
:1047300001F540513DE0294829492844884204D2E6
:1047400024F4705101F5305133E0264826492844BD
:10475000884204D224F4705101F5205129E0234805
:1047600023492844884204D224F4705101F51051A1
:104770001FE0204820492844884204D224F4705184
:1047800001F5005115E01D481D492844884204D216
:1047900024F4705101F5E0510BE01A481A492844FD
:1047A000884224F4705102D201F5C05101E001F5B4
:1047B000A051F068C160F1684FF40050486106B044
:1047C000012070BD401E1BFF40420F0000DC0BFFAC
:1047D000E0C810002013FBFE20D61300003DE7FECA
:1047E000006A180000D3CEFE40771B00C05BB3FE0A
:1047F000C091210000CA91FE40AC2700C01D6AFE96
:1048000040E13300803C36FEE09C41002DE9F04160
:1048100006460025FFF770FE074645E0F80741D041
:104820003069E9B20369426BCA4006EB810102F0CC
:104830000102896943EAC2128C681440E1070FD073
:104840000124426B04FA05F18A43426306EB8500BA
:10485000806984601748E9B2006842683046904732
:10486000200704D506EB8500082480698460E006F3
:1048700004D506EB8500102480698460600604D5A9
:1048800006EB8500402480698460A00704D506EB10
:104890008500022480698460200603D529463046BD
:1048A000FFF7C6FE7F086D1C002FB7D10120BDE8C1
:1048B000F0810000EC0A00202DE9F04107460024B9
:1048C000FFF720FE0646DFF8608028E0F00724D0DE
:1048D000E1B23846FFF71CFE0546C0070AD007EBD9
:1048E00084000125406D8560D8F80000E1B20268BF
:1048F00038469047A80704D507EB84000225406D91
:104900008560280709D5D8F80000816838468847AF
:1049100007EB84010820496D88607608641C002E2E
:10492000D4D10120BDE8F081EC0A002070B5054625
:10493000C068816921F010018161E868066A06F0AB
:104940000F0000EB800005EBC004C6F3434004F504
:104950005D74072821D2DFE800F020200420202009
:10496000150047F6F070064217D0C6F30A16324615
:104970002846E168FFF7D4FDE0683044E060A069B4
:10498000304409E0082205F2CC512846FFF7C8FD63
:10499000A069C6F30A110844A061E868816941F082
:1049A00010018161012070BD70B5044600690025C9
:1049B0000126416821F00101416029462046FFF7A8
:1049C0005BFD0020FF2206E004EB80018B699A600A
:1049D000496D8A60401C61788142F5D821694FF0A9
:1049E000FF3088612846216966F30F0066F31F4097
:1049F000C861216945F00B004861216945F00B0051
:104A000008612069016821F4FE6101602046FFF71A
:104A100059FBE1684FF48050486103480068016920
:104A200020468847012070BDEC0A002010B500F038
:104A3000E3F800F061F800F0BDF810BD2DE9FF418A
:104A400080460E466846FEF769FB304608F06CFA71
:104A500007460FB178680090304608F079FA0446AE
:104A60002CB16088ADF80400A088ADF8080030468D
:104A700008F082FA054615B16888ADF806000020F6
:104A8000ADF80C000C20ADF80A0069464046FEF770
:104A9000E7FABDE8FF812DE9F0418CB00746884672
:104AA00014461D46129E0FB104B115B90CB0BDE8F5
:104AB000F0810EB1102E1DD13846FCF701FC01A883
:104AC000FCF7B8FB08F104000190039602940495EA
:104AD0000020059080200690002007900890099003
:104AE0004FF440500A9000200B9001A93846FCF783
:104AF000C9FB00BF00BFD9E708B50420ADF800002E
:104B000002208DF8020018208DF80300694607483E
:104B1000FDF722FA0820ADF8000048208DF80300C8
:104B200069460248FDF718FA08BD00000008014078
:104B30002DE9F04104460F462078002108F030FAB4
:104B400005460DB9BDE8F0816E68E8680460002094
:104B50006070A0706660A868A06028692061A88A5B
:104B6000A0820020E082E08339463046FFF766FFEE
:104B7000204600F07DF8012240F225513046FEF734
:104B800057FA012240F224413046FEF751FA012142
:104B90003046FEF734FA2078102108F001FA054675
:104BA00005B9CFE7A868E060204600F0E8F800BF4C
:104BB000C8E7000038B50F4C27208DF80000012011
:104BC0008DF801008DF802008DF8030000250DE03E
:104BD000A0788DF800006846FDF748FDE0788DF874
:104BE00000006846FDF742FD6D1C1834022DEFD31E
:104BF00038BD00003C22010810B501210846FDF730
:104C00000DFE0121BD20FDF721FE01214804FDF725
:104C100011FE10BD2DE9F04104460E4615461F4613
:104C2000E08AA18A884201DBA08AE082E08AA84269
:104C300000DBE582E08A3860E28A30462169FBF7D2
:104C4000B0FBBDE8F08110B50446E08AA18A884235
:104C50000DDA03206070012240F225516068FEF7F2
:104C6000E7F9012240F646016068FEF7E1F910BD60
:104C7000F8B504460020E0826070002240F2255121
:104C80006068FEF7D5F9002240F646016068FEF73D
:104C9000CFF9002240F224416068FEF7C9F9A0680C
:104CA000C0B100200090A58AE68AAB1B2569AA192D
:104CB000D4E90110FFF7EFFE012240216068FEF702
:104CC000A8F901220A21A068FCF7D4FA0121A06802
:104CD000FCF798FA012240F225516068FEF7A8F926
:104CE000012240F646016068FEF7A2F9012240F277
:104CF00024416068FEF79CF9F8BDF8B504460D46FE
:104D0000164606B105B9F8BDA561A6830020E0836B
:104D10000120A070E068B0B110200090A38BA269C0
:104D20006168E068FFF7B7FE012280216068FEF746
:104D300070F901220A21E068FCF79CFA0121E06881
:104D4000FCF760FA0DE0E38B5A1CE283A269D15CA8
:104D50006068FEF7DFF9012240F227716068FEF714
:104D600067F900BFCFE770B504460D46606828B10B
:104D7000FFF75CFE29466068FFF760FE70BD10B566
:104D800004460020A070E083A083E06880B1E06862
:104D9000FCF796FA002280216068FEF73AF90022BB
:104DA0000A21E068FCF766FA0021E068FCF72AFABD
:104DB000002240F227716068FEF73AF910BD00BF8B
:104DC000FEE700207047000008B50F4810490F4B60
:104DD000026808689A4202D220F4007004E00D4A8A
:104DE000D2F8242162F3492008600888800509D59B
:104DF000FDF746FF08480090084B094A0121094881
:104E0000FEF742FE002008BD00000020006CDC021E
:104E10009C0A002000002142E86C0108046D010892
:104E2000B46C010868520020704700000FB4054BB5
:104E300010B503A9044A029800F04CF910BC5DF8C3
:104E400014FB0000D18200083C0B00200FB47CB59D
:104E50000C0009AD01D0611E00E00021CDE9000188
:104E6000064B6A462946089800F034F9002C02D017
:104E7000009A002111707CBC5DF814FBDB57000820
:104E80000FB4084B10B504A902AA039800F022F948
:104E9000044602A9002000F0ABFC204610BC5DF8DF
:104EA00014FB0000F15700087CB50C001D461646A7
:104EB000014601D0601E00E00020CDE90010064B45
:104EC0006A462946304600F005F9002C02D0009AC7
:104ED000002111707CBD0000DB570008EFF3088053
:104EE0007047EFF30980704702E008C8121F08C13D
:104EF000002AFAD170477047002001E001C1121F5B
:104F0000002AFBD1704700002DE9FF5F82B000212D
:104F1000DDE90430020DDDF840B0034318D044F65B
:104F20001050A2F2FF3242431514119801281FD0ED
:104F3000A5EB0B00401C5FEA000A4FF000064E4F45
:104F4000DFF83891B046504615D5CAF1000413E099
:104F5000119801244AA3012801D16FEA0B0102989C
:104F6000119AC0E90031C0E9024206B0BDE8F09FE5
:104F7000CBF10000DFE704460021404A491842EB2C
:104F80000450CDE9001012E0E00707D032463B465E
:104F900040464946FBF7FFFB8046894632463B4682
:104FA00010461946FBF7F7FB06460F466410002C27
:104FB000EAD1DDE90401DDE90023BAF1000F06DAE8
:104FC000FBF7E9FB42464B46FBF7E5FB05E0FBF749
:104FD00054FC42464B46FBF750FC04460E4600226A
:104FE000284BFBF7DFFC03D84FF0FF30014607E00A
:104FF0000022254B20463146FBF726FBFBF7C1FD7F
:10500000102409E0002C0ADB0A220023FBF77CF9BC
:10501000039B30321A55641E50EA0102F2D1641C1F
:10502000039AC4F111031444119A012A03D00122F6
:1050300008430DD10AE0084304D000204FF0110BC3
:10504000119072E7A3EB0B056D1E0DE05B4504DDCF
:105050004FF0000205F1010504E003DA4FF0000211
:10506000A5F10105002AECD002981199C0E902319E
:10507000C0E9004579E70000000014400000F03F5F
:10508000300000000000F0430000E03F10B5002AAF
:1050900006DA22F00042D21D22F00703102203E0BC
:1050A000D21C22F003030C2213B19C188C4201D9AC
:1050B000012010BD024401448360C0E90021C91AE7
:1050C000D018884202D810600246F9E7002010602C
:1050D00010BD00002DE9FF4F95B09A468846064660
:1050E0000025EEE1252877D100242746F94A012141
:1050F000039400E0044316F8013F203B01FA03F05B
:105100001042F7D130782A2811D06FF02F03307871
:10511000A0F13002092A16D8039A44F0020402EBE7
:10512000820203EB42021044761C0390EFE758F82A
:10513000042B0392002A03DA504244F400540390F3
:1051400044F00204761C30782E2816D116F8010F90
:1051500044F004042A280DD06FF02F023078A0F11B
:105160003003092B09D807EB870302EB4303C71869
:10517000761CF3E758F8047B761C30786C280FD047
:1051800006DC4C2817D068280DD06A2814D104E01A
:10519000742810D07A280FD10DE044F400140AE0EE
:1051A00044F4801401E044F440147278824202D145
:1051B00004F58014761C761C307866280BD013DC3E
:1051C000582877D009DC002875D04528F6D0462825
:1051D000F4D047281AD193E118E0632835D0642829
:1051E00079D0652812D18BE1702873D008DC67284C
:1051F000F1D069286FD06E280DD06F2806D1ACE0B1
:1052000073282CD0752874D0782853D0524617991B
:1052100090476D1C54E1C4F30250022809D00328C2
:105220000DD0D8F8001004280DD00D6008F1040846
:1052300046E1D8F80010EA17C1E90052F6E7D8F8BD
:1052400000100D80F2E70D70F0E718F8041B8DF8E0
:10525000001000208DF80100EB46012003E058F813
:1052600004BB4FF0FF3061074FF0000102D40DE0A6
:1052700009F101018946B9420FDA8145F8DB1BF8D3
:1052800009100029F4D108E009F1010189468142A1
:10529000FADB1BF809100029F6D103985346A0EB5E
:1052A000090721463846179A00F080FA284400EB97
:1052B000090507E044E008E10DE01BF8010B524648
:1052C00017999047B9F10109F7D25346214638465C
:1052D000179AF2E039E00A21C4F302524FF0000BB2
:1052E0000091022A06D058F8040BC117032A09D0EE
:1052F0000AE023E008F1070020F00702F2E80201CB
:10530000904605E000B2C117042A01D140B2C1178E
:10531000002906DA0A460021404261EB02012D22F3
:1053200002E0220504D52B228DF80420012203E09F
:10533000E20701D02022F7E7914657E00A2100E07A
:1053400010214FF0000B00910BE010214FF0000BEB
:1053500044F004040827009103E008204FF0000BFC
:105360000090C4F30252022A05D058F8040B002121
:10537000032A08D008E008F1070020F00702F2E84D
:105380000201904603E080B2042A00D1C0B24FF07F
:10539000000922072AD53278702A07D0DDF800C02C
:1053A0008CF0100C5CEA0B0C05D00EE040228DF85E
:1053B0000420012208E050EA010306D030238DF8D2
:1053C00004308DF8052002229146009B83F00803EB
:1053D00053EA0B030AD150EA010201D1620705D555
:1053E00030228DF804204FF001097F1E3278582AB0
:1053F00004D039A20C920CAA02920BE03BA2F9E76E
:105400005B46009AFAF780FF0C9B9B5C029A521E47
:105410000292137050EA0102F2D1029804A9081A0C
:1054200000F1200B600702D524F4803400E001274E
:105430005F4502DDA7EB0B0000E0002000EB0B0155
:10544000009003984944401A0390E00306D4534661
:105450002146179A039800F0A9F90544002706E0B1
:1054600001A85246C05D179990476D1C7F1C4F459F
:10547000F6DBE0030CD553462146179A039800F05B
:1054800095F9054404E030205246179990476D1C69
:105490000099481E00900029F5DC08E00298029966
:1054A00052460078491C0291179990476D1CBBF138
:1054B0000001ABF1010BF1DC5BE100F065F90544A3
:1054C000761C307800287FF40DAE19B02846BDE870
:1054D000F08F00000928010030313233343536377F
:1054E0003839616263646566000000003031323330
:1054F00034353637383941424344454600000000D0
:10550000600700D4062708F1070020F00700F0E844
:105510000223804603F0004C5FEA0C0001D097A004
:1055200009E0200501D596A005E0E00701D095A08F
:1055300001E0AFF24C001390307823F0004365286F
:105540000CD006DC452809D046281DD047287FD13D
:105550003BE0662818D067287AD136E00021112F69
:1055600001DB112000E0781CCDE9000104A90CA8A2
:10557000FFF7CAFCDDE90D010C9A4FF0000B07F1B3
:105580000109109200914EE04FF000400097CDE9E4
:10559000011004A90CA8FFF7B7FCDDE90D020C9B74
:1055A0000F994FF0000B91461093009211B9791C9E
:1055B00000EB0109B7EB090003D4C0F1FF3B07F191
:1055C0000109A9EB0700019042E0012F00DA012751
:1055D0000021112F01DD112000E03846CDE9000146
:1055E00004A90CA8FFF790FCDDE90D010C9A0091CD
:1055F0004FF0000BB946109221070FD4009A4A458C
:1056000003DA914601E0A9F10109B9F1010F05DDC5
:10561000109AA9F10101515C3029F4D0B84202DAA4
:1056200010F1040F03DA0121CDE9011010E0002888
:1056300003DC8344A9EB000102E0411C494500DD85
:105640008946A0EB0B00401C01904FF000400290F7
:10565000200705D40198484502DB4FF0FF30019048
:1056600000208DF84B0002980DF14B07B0F1004F70
:1056700025D002200C902B200D90029800280CDAE7
:10568000404202902D200D9007E00A210298FBF77E
:10569000A1F93031029007F8011D0C99481E0C90B9
:1056A0000029F2DC02980028EFD1791E0D980870CD
:1056B000307800F0200040F0450007F8020D11A8F6
:1056C000C01BC01D02901398007800B1012000EBB0
:1056D0000901019801EBE071029801440398401A16
:1056E000401E0390E00306D453462146179A0398C0
:1056F00000F05CF805441398007818B152461799E9
:1057000090476D1CE00323D553462146179A039812
:1057100000F04CF805441BE0BBF1000F07DB0098DC
:10572000584504DD1098179910F80B0001E01799FF
:1057300030205246904701980BF1010B401E05F1B5
:105740000105019004D12E205246179990476D1CF7
:10575000B9F10001A9F10109DEDC05E017F8010B40
:105760005246179990476D1C0299481E02900029D5
:10577000F4DC53462146179A03989EE62D0000005C
:105780002B000000200000002DE9F0410446002518
:105790001E461746880404D405E039462020B04749
:1057A0006D1C641EF9D52846BDE8F0812DE9F04155
:1057B000044600251E469046C80301D5302700E068
:1057C0002027880404D505E041463846B0476D1CC3
:1057D000641EF9D52846BDE8F0814A68002A06D043
:1057E0000A68531C0B6010704868401E4860704780
:1057F0000A68531C0B6010707047000073B582B0CC
:1058000000200090019000F04DFF3B4E3B4C40F6D5
:10581000B8353078C10715D0800713D470880AF0E6
:10582000E7FDA8420ED3307840F002003070608867
:1058300020F010006080208820F00C00208020687C
:1058400002F02FFC2C4E361D3078C10715D0800792
:1058500013D470880AF0CCFDA8420ED3307840F003
:1058600002003070608840F010006080208840F0B6
:105870000C002080206802F014FC1F4C241F2078AC
:10588000C1070CD080070AD460880AF0B1FDA84295
:1058900005D3207840F00200207000F0F1FF164C94
:1058A00008342078C10713D0810711D4144909683E
:1058B0008A050DD4C9030BD460880AF099FDA8426B
:1058C00009D3207840F00200207005F0E9FF02E0E3
:1058D00020F003002070DDE90201FCF7D2FD029800
:1058E0000090BDF80C00ADF80400DDE9000104B043
:1058F000BDE8704000F06CB9760A0020980A0020DC
:105900009C0A002038B50C46054604F089F802468A
:105910002146284603F0B6FF011F0023642912D94F
:10592000703930290FD96C3907290CD93B3102293C
:1059300010D8C0B2A52807D0A62807D0A72807D01E
:10594000002040F48040C6E08120FAE78220F8E79A
:105950008320F6E7A0F1A801162905D8C0B2FCF70C
:10596000EAFD40F48840B6E0A0F1F0010F2902D82A
:1059700040F4A040AFE00122012809D0A0F58071D9
:10598000B1F5F85F07D2C0F3042161F31F20A2E054
:10599000ADF80020BCE0A0F1C0011F2901D888B2F9
:1059A00007E0A0F500514FF48054A14204D2C0F3A7
:1059B0000B0004F02FF88EE0A0F54051A14203D275
:1059C000C0B240F4404086E0A0F58041A14206D23A
:1059D000C0F3032161F31F2040F420407BE0A0F5D9
:1059E000A041FF2910D8C0F301110B02032101EAE5
:1059F000900100F00300824043EA411102F01F00D1
:105A0000014341F40C4066E0A0F5A241FF2902D811
:105A10004AF2F10121E0A0F5A441FF2909D8C0B262
:105A2000810800F00300824061F35F1242F40C40F1
:105A300051E0A0F5A641FF2909D8C0B2810800F0C5
:105A40000300824061F35F1242F40A4043E0A0F594
:105A5000A841FF2904D84AF2F40141EA00203AE0C3
:105A6000A0F5AA424FF40051FF2A02D800F01F000F
:105A7000F3E7A0F5C0428A4206D2C0F3032161F3E6
:105A80001F2040F4005026E0A0F5BE41893925D002
:105A9000A0F5BE418A3924D0A0F5BE418B3923D070
:105AA000A0F5BA41093922D0A0F5BA410A3921D06E
:105AB000A0F5BA410B3920D0A0F5BE418D391FD0D9
:105AC000A0F5BA4125391ED0193104291ED801F19B
:105AD000080040F49040ADF8000019E04FF4904009
